{
  "_format": "hh-sol-artifact-1",
  "contractName": "PeakyBirds",
  "sourceName": "contracts/PeakyBirds.sol",
  "abi": [
    {
      "inputs": [
        {
          "internalType": "address",
          "name": "authorityAddress",
          "type": "address"
        }
      ],
      "stateMutability": "nonpayable",
      "type": "constructor"
    },
    {
      "anonymous": false,
      "inputs": [
        {
          "indexed": true,
          "internalType": "address",
          "name": "owner",
          "type": "address"
        },
        {
          "indexed": true,
          "internalType": "address",
          "name": "approved",
          "type": "address"
        },
        {
          "indexed": true,
          "internalType": "uint256",
          "name": "tokenId",
          "type": "uint256"
        }
      ],
      "name": "Approval",
      "type": "event"
    },
    {
      "anonymous": false,
      "inputs": [
        {
          "indexed": true,
          "internalType": "address",
          "name": "owner",
          "type": "address"
        },
        {
          "indexed": true,
          "internalType": "address",
          "name": "operator",
          "type": "address"
        },
        {
          "indexed": false,
          "internalType": "bool",
          "name": "approved",
          "type": "bool"
        }
      ],
      "name": "ApprovalForAll",
      "type": "event"
    },
    {
      "anonymous": false,
      "inputs": [
        {
          "indexed": true,
          "internalType": "address",
          "name": "previousOwner",
          "type": "address"
        },
        {
          "indexed": true,
          "internalType": "address",
          "name": "newOwner",
          "type": "address"
        }
      ],
      "name": "OwnershipTransferred",
      "type": "event"
    },
    {
      "anonymous": false,
      "inputs": [
        {
          "indexed": true,
          "internalType": "address",
          "name": "from",
          "type": "address"
        },
        {
          "indexed": true,
          "internalType": "address",
          "name": "to",
          "type": "address"
        },
        {
          "indexed": true,
          "internalType": "uint256",
          "name": "tokenId",
          "type": "uint256"
        }
      ],
      "name": "Transfer",
      "type": "event"
    },
    {
      "inputs": [
        {
          "internalType": "address",
          "name": "to",
          "type": "address"
        },
        {
          "internalType": "uint256",
          "name": "tokenId",
          "type": "uint256"
        }
      ],
      "name": "DevMint",
      "outputs": [],
      "stateMutability": "nonpayable",
      "type": "function"
    },
    {
      "inputs": [
        {
          "internalType": "address",
          "name": "to",
          "type": "address"
        },
        {
          "internalType": "uint256",
          "name": "tokenId",
          "type": "uint256"
        }
      ],
      "name": "approve",
      "outputs": [],
      "stateMutability": "nonpayable",
      "type": "function"
    },
    {
      "inputs": [],
      "name": "authority",
      "outputs": [
        {
          "internalType": "contract ERC721Authority",
          "name": "",
          "type": "address"
        }
      ],
      "stateMutability": "view",
      "type": "function"
    },
    {
      "inputs": [
        {
          "internalType": "address",
          "name": "owner",
          "type": "address"
        }
      ],
      "name": "balanceOf",
      "outputs": [
        {
          "internalType": "uint256",
          "name": "",
          "type": "uint256"
        }
      ],
      "stateMutability": "view",
      "type": "function"
    },
    {
      "inputs": [],
      "name": "baseURI",
      "outputs": [
        {
          "internalType": "string",
          "name": "",
          "type": "string"
        }
      ],
      "stateMutability": "view",
      "type": "function"
    },
    {
      "inputs": [
        {
          "internalType": "uint256",
          "name": "tokenId",
          "type": "uint256"
        }
      ],
      "name": "burn",
      "outputs": [],
      "stateMutability": "nonpayable",
      "type": "function"
    },
    {
      "inputs": [],
      "name": "currentSupply",
      "outputs": [
        {
          "internalType": "uint256",
          "name": "",
          "type": "uint256"
        }
      ],
      "stateMutability": "view",
      "type": "function"
    },
    {
      "inputs": [
        {
          "internalType": "uint256",
          "name": "tokenId",
          "type": "uint256"
        }
      ],
      "name": "getApproved",
      "outputs": [
        {
          "internalType": "address",
          "name": "",
          "type": "address"
        }
      ],
      "stateMutability": "view",
      "type": "function"
    },
    {
      "inputs": [
        {
          "internalType": "address",
          "name": "owner",
          "type": "address"
        },
        {
          "internalType": "address",
          "name": "operator",
          "type": "address"
        }
      ],
      "name": "isApprovedForAll",
      "outputs": [
        {
          "internalType": "bool",
          "name": "",
          "type": "bool"
        }
      ],
      "stateMutability": "view",
      "type": "function"
    },
    {
      "inputs": [],
      "name": "maxMintedByOwner",
      "outputs": [
        {
          "internalType": "uint256",
          "name": "",
          "type": "uint256"
        }
      ],
      "stateMutability": "view",
      "type": "function"
    },
    {
      "inputs": [],
      "name": "maxSupply",
      "outputs": [
        {
          "internalType": "uint256",
          "name": "",
          "type": "uint256"
        }
      ],
      "stateMutability": "view",
      "type": "function"
    },
    {
      "inputs": [],
      "name": "mintedCountByOwner",
      "outputs": [
        {
          "internalType": "uint256",
          "name": "",
          "type": "uint256"
        }
      ],
      "stateMutability": "view",
      "type": "function"
    },
    {
      "inputs": [],
      "name": "mintingPaused",
      "outputs": [
        {
          "internalType": "bool",
          "name": "",
          "type": "bool"
        }
      ],
      "stateMutability": "view",
      "type": "function"
    },
    {
      "inputs": [],
      "name": "name",
      "outputs": [
        {
          "internalType": "string",
          "name": "",
          "type": "string"
        }
      ],
      "stateMutability": "view",
      "type": "function"
    },
    {
      "inputs": [],
      "name": "owner",
      "outputs": [
        {
          "internalType": "address",
          "name": "",
          "type": "address"
        }
      ],
      "stateMutability": "view",
      "type": "function"
    },
    {
      "inputs": [
        {
          "internalType": "uint256",
          "name": "tokenId",
          "type": "uint256"
        }
      ],
      "name": "ownerOf",
      "outputs": [
        {
          "internalType": "address",
          "name": "",
          "type": "address"
        }
      ],
      "stateMutability": "view",
      "type": "function"
    },
    {
      "inputs": [],
      "name": "renounceOwnership",
      "outputs": [],
      "stateMutability": "nonpayable",
      "type": "function"
    },
    {
      "inputs": [
        {
          "internalType": "address",
          "name": "to",
          "type": "address"
        },
        {
          "internalType": "uint256",
          "name": "tokenId",
          "type": "uint256"
        }
      ],
      "name": "safeMint",
      "outputs": [],
      "stateMutability": "nonpayable",
      "type": "function"
    },
    {
      "inputs": [
        {
          "internalType": "address",
          "name": "from",
          "type": "address"
        },
        {
          "internalType": "address",
          "name": "to",
          "type": "address"
        },
        {
          "internalType": "uint256",
          "name": "tokenId",
          "type": "uint256"
        }
      ],
      "name": "safeTransferFrom",
      "outputs": [],
      "stateMutability": "nonpayable",
      "type": "function"
    },
    {
      "inputs": [
        {
          "internalType": "address",
          "name": "from",
          "type": "address"
        },
        {
          "internalType": "address",
          "name": "to",
          "type": "address"
        },
        {
          "internalType": "uint256",
          "name": "tokenId",
          "type": "uint256"
        },
        {
          "internalType": "bytes",
          "name": "data",
          "type": "bytes"
        }
      ],
      "name": "safeTransferFrom",
      "outputs": [],
      "stateMutability": "nonpayable",
      "type": "function"
    },
    {
      "inputs": [
        {
          "internalType": "address",
          "name": "operator",
          "type": "address"
        },
        {
          "internalType": "bool",
          "name": "approved",
          "type": "bool"
        }
      ],
      "name": "setApprovalForAll",
      "outputs": [],
      "stateMutability": "nonpayable",
      "type": "function"
    },
    {
      "inputs": [
        {
          "internalType": "string",
          "name": "_uri",
          "type": "string"
        }
      ],
      "name": "setBaseURI",
      "outputs": [],
      "stateMutability": "nonpayable",
      "type": "function"
    },
    {
      "inputs": [
        {
          "internalType": "bytes4",
          "name": "interfaceId",
          "type": "bytes4"
        }
      ],
      "name": "supportsInterface",
      "outputs": [
        {
          "internalType": "bool",
          "name": "",
          "type": "bool"
        }
      ],
      "stateMutability": "view",
      "type": "function"
    },
    {
      "inputs": [],
      "name": "symbol",
      "outputs": [
        {
          "internalType": "string",
          "name": "",
          "type": "string"
        }
      ],
      "stateMutability": "view",
      "type": "function"
    },
    {
      "inputs": [],
      "name": "toggleMintingPause",
      "outputs": [],
      "stateMutability": "nonpayable",
      "type": "function"
    },
    {
      "inputs": [
        {
          "internalType": "uint256",
          "name": "tokenId",
          "type": "uint256"
        }
      ],
      "name": "tokenURI",
      "outputs": [
        {
          "internalType": "string",
          "name": "",
          "type": "string"
        }
      ],
      "stateMutability": "view",
      "type": "function"
    },
    {
      "inputs": [
        {
          "internalType": "address",
          "name": "from",
          "type": "address"
        },
        {
          "internalType": "address",
          "name": "to",
          "type": "address"
        },
        {
          "internalType": "uint256",
          "name": "tokenId",
          "type": "uint256"
        }
      ],
      "name": "transferFrom",
      "outputs": [],
      "stateMutability": "nonpayable",
      "type": "function"
    },
    {
      "inputs": [
        {
          "internalType": "address",
          "name": "newOwner",
          "type": "address"
        }
      ],
      "name": "transferOwnership",
      "outputs": [],
      "stateMutability": "nonpayable",
      "type": "function"
    },
    {
      "inputs": [],
      "name": "withdraw",
      "outputs": [],
      "stateMutability": "payable",
      "type": "function"
    }
  ],
  "bytecode": "0x608060405260405180602001604052806000815250600a90805190602001906200002b9291906200027a565b503480156200003957600080fd5b5060405162003d9138038062003d9183398181016040528101906200005f919062000341565b6040518060400160405280600a81526020017f5065616b794269726473000000000000000000000000000000000000000000008152506040518060400160405280600281526020017f50420000000000000000000000000000000000000000000000000000000000008152508160009080519060200190620000e39291906200027a565b508060019080519060200190620000fc9291906200027a565b5050506200011f62000113620001ac60201b60201c565b620001b460201b60201c565b600060088190555080600960006101000a81548173ffffffffffffffffffffffffffffffffffffffff021916908373ffffffffffffffffffffffffffffffffffffffff1602179055506000600960146101000a81548160ff02191690831515021790555061181e600b819055506000600c8190555061012c600d819055506000600e819055505062000420565b600033905090565b6000600760009054906101000a900473ffffffffffffffffffffffffffffffffffffffff16905081600760006101000a81548173ffffffffffffffffffffffffffffffffffffffff021916908373ffffffffffffffffffffffffffffffffffffffff1602179055508173ffffffffffffffffffffffffffffffffffffffff168173ffffffffffffffffffffffffffffffffffffffff167f8be0079c531659141344cd1fd0a4f28419497f9722a3daafe3b4186f6b6457e060405160405180910390a35050565b8280546200028890620003a1565b90600052602060002090601f016020900481019282620002ac5760008555620002f8565b82601f10620002c757805160ff1916838001178555620002f8565b82800160010185558215620002f8579182015b82811115620002f7578251825591602001919060010190620002da565b5b5090506200030791906200030b565b5090565b5b80821115620003265760008160009055506001016200030c565b5090565b6000815190506200033b8162000406565b92915050565b6000602082840312156200035457600080fd5b600062000364848285016200032a565b91505092915050565b60006200037a8262000381565b9050919050565b600073ffffffffffffffffffffffffffffffffffffffff82169050919050565b60006002820490506001821680620003ba57607f821691505b60208210811415620003d157620003d0620003d7565b5b50919050565b7f4e487b7100000000000000000000000000000000000000000000000000000000600052602260045260246000fd5b62000411816200036d565b81146200041d57600080fd5b50565b61396180620004306000396000f3fe6080604052600436106101c25760003560e01c8063771282f6116100f7578063b88d4fde11610095578063d5abeb0111610064578063d5abeb01146105f9578063e1a283d614610624578063e985e9c51461064f578063f2fde38b1461068c576101c2565b8063b88d4fde14610551578063bf7e214f1461057a578063c189e643146105a5578063c87b56dd146105bc576101c2565b80638da5cb5b116100d15780638da5cb5b146104a957806395d89b41146104d4578063a1448194146104ff578063a22cb46514610528576101c2565b8063771282f61461042a57806377cf621c146104555780637d8400f014610480576101c2565b806342966c68116101645780636c0360eb1161013e5780636c0360eb146103805780636feb4178146103ab57806370a08231146103d6578063715018a614610413576101c2565b806342966c68146102f157806355f804b31461031a5780636352211e14610343576101c2565b8063095ea7b3116101a0578063095ea7b31461026c57806323b872dd146102955780633ccfd60b146102be57806342842e0e146102c8576101c2565b806301ffc9a7146101c757806306fdde0314610204578063081812fc1461022f575b600080fd5b3480156101d357600080fd5b506101ee60048036038101906101e99190612a07565b6106b5565b6040516101fb9190612edb565b60405180910390f35b34801561021057600080fd5b50610219610797565b6040516102269190612f11565b60405180910390f35b34801561023b57600080fd5b5061025660048036038101906102519190612a9a565b610829565b6040516102639190612e74565b60405180910390f35b34801561027857600080fd5b50610293600480360381019061028e91906129a2565b61086f565b005b3480156102a157600080fd5b506102bc60048036038101906102b7919061289c565b610987565b005b6102c66109e7565b005b3480156102d457600080fd5b506102ef60048036038101906102ea919061289c565b610a6f565b005b3480156102fd57600080fd5b5061031860048036038101906103139190612a9a565b610a8f565b005b34801561032657600080fd5b50610341600480360381019061033c9190612a59565b610aeb565b005b34801561034f57600080fd5b5061036a60048036038101906103659190612a9a565b610b0d565b6040516103779190612e74565b60405180910390f35b34801561038c57600080fd5b50610395610b94565b6040516103a29190612f11565b60405180910390f35b3480156103b757600080fd5b506103c0610c22565b6040516103cd9190613173565b60405180910390f35b3480156103e257600080fd5b506103fd60048036038101906103f89190612837565b610c28565b60405161040a9190613173565b60405180910390f35b34801561041f57600080fd5b50610428610ce0565b005b34801561043657600080fd5b5061043f610cf4565b60405161044c9190613173565b60405180910390f35b34801561046157600080fd5b5061046a610cfa565b6040516104779190613173565b60405180910390f35b34801561048c57600080fd5b506104a760048036038101906104a291906129a2565b610d00565b005b3480156104b557600080fd5b506104be610d71565b6040516104cb9190612e74565b60405180910390f35b3480156104e057600080fd5b506104e9610d9b565b6040516104f69190612f11565b60405180910390f35b34801561050b57600080fd5b50610526600480360381019061052191906129a2565b610e2d565b005b34801561053457600080fd5b5061054f600480360381019061054a9190612966565b61100d565b005b34801561055d57600080fd5b50610578600480360381019061057391906128eb565b611023565b005b34801561058657600080fd5b5061058f611085565b60405161059c9190612ef6565b60405180910390f35b3480156105b157600080fd5b506105ba6110ab565b005b3480156105c857600080fd5b506105e360048036038101906105de9190612a9a565b6110df565b6040516105f09190612f11565b60405180910390f35b34801561060557600080fd5b5061060e6111f2565b60405161061b9190613173565b60405180910390f35b34801561063057600080fd5b506106396111f8565b6040516106469190612edb565b60405180910390f35b34801561065b57600080fd5b5061067660048036038101906106719190612860565b61120b565b6040516106839190612edb565b60405180910390f35b34801561069857600080fd5b506106b360048036038101906106ae9190612837565b61129f565b005b60007f80ac58cd000000000000000000000000000000000000000000000000000000007bffffffffffffffffffffffffffffffffffffffffffffffffffffffff1916827bffffffffffffffffffffffffffffffffffffffffffffffffffffffff1916148061078057507f5b5e139f000000000000000000000000000000000000000000000000000000007bffffffffffffffffffffffffffffffffffffffffffffffffffffffff1916827bffffffffffffffffffffffffffffffffffffffffffffffffffffffff1916145b80610790575061078f82611323565b5b9050919050565b6060600080546107a690613393565b80601f01602080910402602001604051908101604052809291908181526020018280546107d290613393565b801561081f5780601f106107f45761010080835404028352916020019161081f565b820191906000526020600020905b81548152906001019060200180831161080257829003601f168201915b5050505050905090565b60006108348261138d565b6004600083815260200190815260200160002060009054906101000a900473ffffffffffffffffffffffffffffffffffffffff169050919050565b600061087a82610b0d565b90508073ffffffffffffffffffffffffffffffffffffffff168373ffffffffffffffffffffffffffffffffffffffff1614156108eb576040517f08c379a00000000000000000000000000000000000000000000000000000000081526004016108e2906130d3565b60405180910390fd5b8073ffffffffffffffffffffffffffffffffffffffff1661090a6113d8565b73ffffffffffffffffffffffffffffffffffffffff1614806109395750610938816109336113d8565b61120b565b5b610978576040517f08c379a000000000000000000000000000000000000000000000000000000000815260040161096f90613133565b60405180910390fd5b61098283836113e0565b505050565b6109986109926113d8565b82611499565b6109d7576040517f08c379a00000000000000000000000000000000000000000000000000000000081526004016109ce90612f33565b60405180910390fd5b6109e283838361152e565b505050565b6109ef611828565b60006109f9610d71565b73ffffffffffffffffffffffffffffffffffffffff1647604051610a1c90612e5f565b60006040518083038185875af1925050503d8060008114610a59576040519150601f19603f3d011682016040523d82523d6000602084013e610a5e565b606091505b5050905080610a6c57600080fd5b50565b610a8a83838360405180602001604052806000815250611023565b505050565b610aa0610a9a6113d8565b82611499565b610adf576040517f08c379a0000000000000000000000000000000000000000000000000000000008152600401610ad690613113565b60405180910390fd5b610ae8816118a6565b50565b610af3611828565b80600a9080519060200190610b09929190612606565b5050565b600080610b19836118f9565b9050600073ffffffffffffffffffffffffffffffffffffffff168173ffffffffffffffffffffffffffffffffffffffff161415610b8b576040517f08c379a0000000000000000000000000000000000000000000000000000000008152600401610b82906130b3565b60405180910390fd5b80915050919050565b600a8054610ba190613393565b80601f0160208091040260200160405190810160405280929190818152602001828054610bcd90613393565b8015610c1a5780601f10610bef57610100808354040283529160200191610c1a565b820191906000526020600020905b815481529060010190602001808311610bfd57829003601f168201915b505050505081565b600d5481565b60008073ffffffffffffffffffffffffffffffffffffffff168273ffffffffffffffffffffffffffffffffffffffff161415610c99576040517f08c379a0000000000000000000000000000000000000000000000000000000008152600401610c9090613013565b60405180910390fd5b600360008373ffffffffffffffffffffffffffffffffffffffff1673ffffffffffffffffffffffffffffffffffffffff168152602001908152602001600020549050919050565b610ce8611828565b610cf26000611936565b565b600c5481565b600e5481565b610d08611828565b600d54600e5410610d4e576040517f08c379a0000000000000000000000000000000000000000000000000000000008152600401610d4590613033565b60405180910390fd5b610d5882826119fc565b6001600e54610d679190613263565b600e819055505050565b6000600760009054906101000a900473ffffffffffffffffffffffffffffffffffffffff16905090565b606060018054610daa90613393565b80601f0160208091040260200160405190810160405280929190818152602001828054610dd690613393565b8015610e235780601f10610df857610100808354040283529160200191610e23565b820191906000526020600020905b815481529060010190602001808311610e0657829003601f168201915b5050505050905090565b600960149054906101000a900460ff1615610e7d576040517f08c379a0000000000000000000000000000000000000000000000000000000008152600401610e74906130f3565b60405180910390fd5b600960009054906101000a900473ffffffffffffffffffffffffffffffffffffffff1673ffffffffffffffffffffffffffffffffffffffff16633af32abf336040518263ffffffff1660e01b8152600401610ed89190612e74565b60206040518083038186803b158015610ef057600080fd5b505afa158015610f04573d6000803e3d6000fd5b505050506040513d601f19601f82011682018060405250810190610f2891906129de565b80610f655750610f36610d71565b73ffffffffffffffffffffffffffffffffffffffff163373ffffffffffffffffffffffffffffffffffffffff16145b610fa4576040517f08c379a0000000000000000000000000000000000000000000000000000000008152600401610f9b90613073565b60405180910390fd5b600b54600c5410610fea576040517f08c379a0000000000000000000000000000000000000000000000000000000008152600401610fe190613153565b60405180910390fd5b610ff48282611c1a565b6001600c546110039190613263565b600c819055505050565b61101f6110186113d8565b8383611c38565b5050565b61103461102e6113d8565b83611499565b611073576040517f08c379a000000000000000000000000000000000000000000000000000000000815260040161106a90612f33565b60405180910390fd5b61107f84848484611da5565b50505050565b600960009054906101000a900473ffffffffffffffffffffffffffffffffffffffff1681565b6110b3611828565b600960149054906101000a900460ff1615600960146101000a81548160ff021916908315150217905550565b60606110ea8261138d565b600060066000848152602001908152602001600020805461110a90613393565b80601f016020809104026020016040519081016040528092919081815260200182805461113690613393565b80156111835780601f1061115857610100808354040283529160200191611183565b820191906000526020600020905b81548152906001019060200180831161116657829003601f168201915b505050505090506000611194611e01565b90506000815114156111aa5781925050506111ed565b6000825111156111df5780826040516020016111c7929190612e3b565b604051602081830303815290604052925050506111ed565b6111e884611e93565b925050505b919050565b600b5481565b600960149054906101000a900460ff1681565b6000600560008473ffffffffffffffffffffffffffffffffffffffff1673ffffffffffffffffffffffffffffffffffffffff16815260200190815260200160002060008373ffffffffffffffffffffffffffffffffffffffff1673ffffffffffffffffffffffffffffffffffffffff16815260200190815260200160002060009054906101000a900460ff16905092915050565b6112a7611828565b600073ffffffffffffffffffffffffffffffffffffffff168173ffffffffffffffffffffffffffffffffffffffff161415611317576040517f08c379a000000000000000000000000000000000000000000000000000000000815260040161130e90612f73565b60405180910390fd5b61132081611936565b50565b60007f01ffc9a7000000000000000000000000000000000000000000000000000000007bffffffffffffffffffffffffffffffffffffffffffffffffffffffff1916827bffffffffffffffffffffffffffffffffffffffffffffffffffffffff1916149050919050565b61139681611efb565b6113d5576040517f08c379a00000000000000000000000000000000000000000000000000000000081526004016113cc906130b3565b60405180910390fd5b50565b600033905090565b816004600083815260200190815260200160002060006101000a81548173ffffffffffffffffffffffffffffffffffffffff021916908373ffffffffffffffffffffffffffffffffffffffff160217905550808273ffffffffffffffffffffffffffffffffffffffff1661145383610b0d565b73ffffffffffffffffffffffffffffffffffffffff167f8c5be1e5ebec7d5bd14f71427d1e84f3dd0314c0f7b2291e5b200ac8c7c3b92560405160405180910390a45050565b6000806114a583610b0d565b90508073ffffffffffffffffffffffffffffffffffffffff168473ffffffffffffffffffffffffffffffffffffffff1614806114e757506114e6818561120b565b5b8061152557508373ffffffffffffffffffffffffffffffffffffffff1661150d84610829565b73ffffffffffffffffffffffffffffffffffffffff16145b91505092915050565b8273ffffffffffffffffffffffffffffffffffffffff1661154e82610b0d565b73ffffffffffffffffffffffffffffffffffffffff16146115a4576040517f08c379a000000000000000000000000000000000000000000000000000000000815260040161159b90612f93565b60405180910390fd5b600073ffffffffffffffffffffffffffffffffffffffff168273ffffffffffffffffffffffffffffffffffffffff161415611614576040517f08c379a000000000000000000000000000000000000000000000000000000000815260040161160b90612fd3565b60405180910390fd5b6116218383836001611f3c565b8273ffffffffffffffffffffffffffffffffffffffff1661164182610b0d565b73ffffffffffffffffffffffffffffffffffffffff1614611697576040517f08c379a000000000000000000000000000000000000000000000000000000000815260040161168e90612f93565b60405180910390fd5b6004600082815260200190815260200160002060006101000a81549073ffffffffffffffffffffffffffffffffffffffff02191690556001600360008573ffffffffffffffffffffffffffffffffffffffff1673ffffffffffffffffffffffffffffffffffffffff168152602001908152602001600020600082825403925050819055506001600360008473ffffffffffffffffffffffffffffffffffffffff1673ffffffffffffffffffffffffffffffffffffffff16815260200190815260200160002060008282540192505081905550816002600083815260200190815260200160002060006101000a81548173ffffffffffffffffffffffffffffffffffffffff021916908373ffffffffffffffffffffffffffffffffffffffff160217905550808273ffffffffffffffffffffffffffffffffffffffff168473ffffffffffffffffffffffffffffffffffffffff167fddf252ad1be2c89b69c2b068fc378daa952ba7f163c4a11628f55a4df523b3ef60405160405180910390a46118238383836001611f42565b505050565b6118306113d8565b73ffffffffffffffffffffffffffffffffffffffff1661184e610d71565b73ffffffffffffffffffffffffffffffffffffffff16146118a4576040517f08c379a000000000000000000000000000000000000000000000000000000000815260040161189b90613093565b60405180910390fd5b565b6118af81611f48565b60006006600083815260200190815260200160002080546118cf90613393565b9050146118f6576006600082815260200190815260200160002060006118f5919061268c565b5b50565b60006002600083815260200190815260200160002060009054906101000a900473ffffffffffffffffffffffffffffffffffffffff169050919050565b6000600760009054906101000a900473ffffffffffffffffffffffffffffffffffffffff16905081600760006101000a81548173ffffffffffffffffffffffffffffffffffffffff021916908373ffffffffffffffffffffffffffffffffffffffff1602179055508173ffffffffffffffffffffffffffffffffffffffff168173ffffffffffffffffffffffffffffffffffffffff167f8be0079c531659141344cd1fd0a4f28419497f9722a3daafe3b4186f6b6457e060405160405180910390a35050565b600073ffffffffffffffffffffffffffffffffffffffff168273ffffffffffffffffffffffffffffffffffffffff161415611a6c576040517f08c379a0000000000000000000000000000000000000000000000000000000008152600401611a6390613053565b60405180910390fd5b611a7581611efb565b15611ab5576040517f08c379a0000000000000000000000000000000000000000000000000000000008152600401611aac90612fb3565b60405180910390fd5b611ac3600083836001611f3c565b611acc81611efb565b15611b0c576040517f08c379a0000000000000000000000000000000000000000000000000000000008152600401611b0390612fb3565b60405180910390fd5b6001600360008473ffffffffffffffffffffffffffffffffffffffff1673ffffffffffffffffffffffffffffffffffffffff16815260200190815260200160002060008282540192505081905550816002600083815260200190815260200160002060006101000a81548173ffffffffffffffffffffffffffffffffffffffff021916908373ffffffffffffffffffffffffffffffffffffffff160217905550808273ffffffffffffffffffffffffffffffffffffffff16600073ffffffffffffffffffffffffffffffffffffffff167fddf252ad1be2c89b69c2b068fc378daa952ba7f163c4a11628f55a4df523b3ef60405160405180910390a4611c16600083836001611f42565b5050565b611c34828260405180602001604052806000815250612096565b5050565b8173ffffffffffffffffffffffffffffffffffffffff168373ffffffffffffffffffffffffffffffffffffffff161415611ca7576040517f08c379a0000000000000000000000000000000000000000000000000000000008152600401611c9e90612ff3565b60405180910390fd5b80600560008573ffffffffffffffffffffffffffffffffffffffff1673ffffffffffffffffffffffffffffffffffffffff16815260200190815260200160002060008473ffffffffffffffffffffffffffffffffffffffff1673ffffffffffffffffffffffffffffffffffffffff16815260200190815260200160002060006101000a81548160ff0219169083151502179055508173ffffffffffffffffffffffffffffffffffffffff168373ffffffffffffffffffffffffffffffffffffffff167f17307eab39ab6107e8899845ad3d59bd9653f200f220920489ca2b5937696c3183604051611d989190612edb565b60405180910390a3505050565b611db084848461152e565b611dbc848484846120f1565b611dfb576040517f08c379a0000000000000000000000000000000000000000000000000000000008152600401611df290612f53565b60405180910390fd5b50505050565b6060600a8054611e1090613393565b80601f0160208091040260200160405190810160405280929190818152602001828054611e3c90613393565b8015611e895780601f10611e5e57610100808354040283529160200191611e89565b820191906000526020600020905b815481529060010190602001808311611e6c57829003601f168201915b5050505050905090565b6060611e9e8261138d565b6000611ea8611e01565b90506000815111611ec85760405180602001604052806000815250611ef3565b80611ed284612288565b604051602001611ee3929190612e3b565b6040516020818303038152906040525b915050919050565b60008073ffffffffffffffffffffffffffffffffffffffff16611f1d836118f9565b73ffffffffffffffffffffffffffffffffffffffff1614159050919050565b50505050565b50505050565b6000611f5382610b0d565b9050611f63816000846001611f3c565b611f6c82610b0d565b90506004600083815260200190815260200160002060006101000a81549073ffffffffffffffffffffffffffffffffffffffff02191690556001600360008373ffffffffffffffffffffffffffffffffffffffff1673ffffffffffffffffffffffffffffffffffffffff168152602001908152602001600020600082825403925050819055506002600083815260200190815260200160002060006101000a81549073ffffffffffffffffffffffffffffffffffffffff021916905581600073ffffffffffffffffffffffffffffffffffffffff168273ffffffffffffffffffffffffffffffffffffffff167fddf252ad1be2c89b69c2b068fc378daa952ba7f163c4a11628f55a4df523b3ef60405160405180910390a4612092816000846001611f42565b5050565b6120a083836119fc565b6120ad60008484846120f1565b6120ec576040517f08c379a00000000000000000000000000000000000000000000000000000000081526004016120e390612f53565b60405180910390fd5b505050565b60006121128473ffffffffffffffffffffffffffffffffffffffff166123ac565b1561227b578373ffffffffffffffffffffffffffffffffffffffff1663150b7a0261213b6113d8565b8786866040518563ffffffff1660e01b815260040161215d9493929190612e8f565b602060405180830381600087803b15801561217757600080fd5b505af19250505080156121a857506040513d601f19601f820116820180604052508101906121a59190612a30565b60015b61222b573d80600081146121d8576040519150601f19603f3d011682016040523d82523d6000602084013e6121dd565b606091505b50600081511415612223576040517f08c379a000000000000000000000000000000000000000000000000000000000815260040161221a90612f53565b60405180910390fd5b805181602001fd5b63150b7a0260e01b7bffffffffffffffffffffffffffffffffffffffffffffffffffffffff1916817bffffffffffffffffffffffffffffffffffffffffffffffffffffffff191614915050612280565b600190505b949350505050565b606060006001612297846123cf565b01905060008167ffffffffffffffff8111156122dc577f4e487b7100000000000000000000000000000000000000000000000000000000600052604160045260246000fd5b6040519080825280601f01601f19166020018201604052801561230e5781602001600182028036833780820191505090505b509050600082602001820190505b6001156123a1578080600190039150507f3031323334353637383961626364656600000000000000000000000000000000600a86061a8153600a858161238b577f4e487b7100000000000000000000000000000000000000000000000000000000600052601260045260246000fd5b049450600085141561239c576123a1565b61231c565b819350505050919050565b6000808273ffffffffffffffffffffffffffffffffffffffff163b119050919050565b600080600090507a184f03e93ff9f4daa797ed6e38ed64bf6a1f0100000000000000008310612453577a184f03e93ff9f4daa797ed6e38ed64bf6a1f0100000000000000008381612449577f4e487b7100000000000000000000000000000000000000000000000000000000600052601260045260246000fd5b0492506040810190505b6d04ee2d6d415b85acef810000000083106124b6576d04ee2d6d415b85acef810000000083816124ac577f4e487b7100000000000000000000000000000000000000000000000000000000600052601260045260246000fd5b0492506020810190505b662386f26fc10000831061250b57662386f26fc100008381612501577f4e487b7100000000000000000000000000000000000000000000000000000000600052601260045260246000fd5b0492506010810190505b6305f5e100831061255a576305f5e1008381612550577f4e487b7100000000000000000000000000000000000000000000000000000000600052601260045260246000fd5b0492506008810190505b61271083106125a557612710838161259b577f4e487b7100000000000000000000000000000000000000000000000000000000600052601260045260246000fd5b0492506004810190505b606483106125ee57606483816125e4577f4e487b7100000000000000000000000000000000000000000000000000000000600052601260045260246000fd5b0492506002810190505b600a83106125fd576001810190505b80915050919050565b82805461261290613393565b90600052602060002090601f016020900481019282612634576000855561267b565b82601f1061264d57805160ff191683800117855561267b565b8280016001018555821561267b579182015b8281111561267a57825182559160200191906001019061265f565b5b50905061268891906126cc565b5090565b50805461269890613393565b6000825580601f106126aa57506126c9565b601f0160209004906000526020600020908101906126c891906126cc565b5b50565b5b808211156126e55760008160009055506001016126cd565b5090565b60006126fc6126f7846131b3565b61318e565b90508281526020810184848401111561271457600080fd5b61271f848285613351565b509392505050565b600061273a612735846131e4565b61318e565b90508281526020810184848401111561275257600080fd5b61275d848285613351565b509392505050565b600081359050612774816138cf565b92915050565b600081359050612789816138e6565b92915050565b60008151905061279e816138e6565b92915050565b6000813590506127b3816138fd565b92915050565b6000815190506127c8816138fd565b92915050565b600082601f8301126127df57600080fd5b81356127ef8482602086016126e9565b91505092915050565b600082601f83011261280957600080fd5b8135612819848260208601612727565b91505092915050565b60008135905061283181613914565b92915050565b60006020828403121561284957600080fd5b600061285784828501612765565b91505092915050565b6000806040838503121561287357600080fd5b600061288185828601612765565b925050602061289285828601612765565b9150509250929050565b6000806000606084860312156128b157600080fd5b60006128bf86828701612765565b93505060206128d086828701612765565b92505060406128e186828701612822565b9150509250925092565b6000806000806080858703121561290157600080fd5b600061290f87828801612765565b945050602061292087828801612765565b935050604061293187828801612822565b925050606085013567ffffffffffffffff81111561294e57600080fd5b61295a878288016127ce565b91505092959194509250565b6000806040838503121561297957600080fd5b600061298785828601612765565b92505060206129988582860161277a565b9150509250929050565b600080604083850312156129b557600080fd5b60006129c385828601612765565b92505060206129d485828601612822565b9150509250929050565b6000602082840312156129f057600080fd5b60006129fe8482850161278f565b91505092915050565b600060208284031215612a1957600080fd5b6000612a27848285016127a4565b91505092915050565b600060208284031215612a4257600080fd5b6000612a50848285016127b9565b91505092915050565b600060208284031215612a6b57600080fd5b600082013567ffffffffffffffff811115612a8557600080fd5b612a91848285016127f8565b91505092915050565b600060208284031215612aac57600080fd5b6000612aba84828501612822565b91505092915050565b612acc816132b9565b82525050565b612adb816132cb565b82525050565b6000612aec82613215565b612af6818561322b565b9350612b06818560208601613360565b612b0f81613483565b840191505092915050565b612b238161332d565b82525050565b6000612b3482613220565b612b3e8185613247565b9350612b4e818560208601613360565b612b5781613483565b840191505092915050565b6000612b6d82613220565b612b778185613258565b9350612b87818560208601613360565b80840191505092915050565b6000612ba0602d83613247565b9150612bab82613494565b604082019050919050565b6000612bc3603283613247565b9150612bce826134e3565b604082019050919050565b6000612be6602683613247565b9150612bf182613532565b604082019050919050565b6000612c09602583613247565b9150612c1482613581565b604082019050919050565b6000612c2c601c83613247565b9150612c37826135d0565b602082019050919050565b6000612c4f602483613247565b9150612c5a826135f9565b604082019050919050565b6000612c72601983613247565b9150612c7d82613648565b602082019050919050565b6000612c95602983613247565b9150612ca082613671565b604082019050919050565b6000612cb8601b83613247565b9150612cc3826136c0565b602082019050919050565b6000612cdb602083613247565b9150612ce6826136e9565b602082019050919050565b6000612cfe601383613247565b9150612d0982613712565b602082019050919050565b6000612d21602083613247565b9150612d2c8261373b565b602082019050919050565b6000612d44601883613247565b9150612d4f82613764565b602082019050919050565b6000612d67602183613247565b9150612d728261378d565b604082019050919050565b6000612d8a601b83613247565b9150612d95826137dc565b602082019050919050565b6000612dad602083613247565b9150612db882613805565b602082019050919050565b6000612dd0603d83613247565b9150612ddb8261382e565b604082019050919050565b6000612df3601283613247565b9150612dfe8261387d565b602082019050919050565b6000612e1660118361323c565b9150612e21826138a6565b601182019050919050565b612e3581613323565b82525050565b6000612e478285612b62565b9150612e538284612b62565b91508190509392505050565b6000612e6a82612e09565b9150819050919050565b6000602082019050612e896000830184612ac3565b92915050565b6000608082019050612ea46000830187612ac3565b612eb16020830186612ac3565b612ebe6040830185612e2c565b8181036060830152612ed08184612ae1565b905095945050505050565b6000602082019050612ef06000830184612ad2565b92915050565b6000602082019050612f0b6000830184612b1a565b92915050565b60006020820190508181036000830152612f2b8184612b29565b905092915050565b60006020820190508181036000830152612f4c81612b93565b9050919050565b60006020820190508181036000830152612f6c81612bb6565b9050919050565b60006020820190508181036000830152612f8c81612bd9565b9050919050565b60006020820190508181036000830152612fac81612bfc565b9050919050565b60006020820190508181036000830152612fcc81612c1f565b9050919050565b60006020820190508181036000830152612fec81612c42565b9050919050565b6000602082019050818103600083015261300c81612c65565b9050919050565b6000602082019050818103600083015261302c81612c88565b9050919050565b6000602082019050818103600083015261304c81612cab565b9050919050565b6000602082019050818103600083015261306c81612cce565b9050919050565b6000602082019050818103600083015261308c81612cf1565b9050919050565b600060208201905081810360008301526130ac81612d14565b9050919050565b600060208201905081810360008301526130cc81612d37565b9050919050565b600060208201905081810360008301526130ec81612d5a565b9050919050565b6000602082019050818103600083015261310c81612d7d565b9050919050565b6000602082019050818103600083015261312c81612da0565b9050919050565b6000602082019050818103600083015261314c81612dc3565b9050919050565b6000602082019050818103600083015261316c81612de6565b9050919050565b60006020820190506131886000830184612e2c565b92915050565b60006131986131a9565b90506131a482826133c5565b919050565b6000604051905090565b600067ffffffffffffffff8211156131ce576131cd613454565b5b6131d782613483565b9050602081019050919050565b600067ffffffffffffffff8211156131ff576131fe613454565b5b61320882613483565b9050602081019050919050565b600081519050919050565b600081519050919050565b600082825260208201905092915050565b600081905092915050565b600082825260208201905092915050565b600081905092915050565b600061326e82613323565b915061327983613323565b9250827fffffffffffffffffffffffffffffffffffffffffffffffffffffffffffffffff038211156132ae576132ad6133f6565b5b828201905092915050565b60006132c482613303565b9050919050565b60008115159050919050565b60007fffffffff0000000000000000000000000000000000000000000000000000000082169050919050565b600073ffffffffffffffffffffffffffffffffffffffff82169050919050565b6000819050919050565b60006133388261333f565b9050919050565b600061334a82613303565b9050919050565b82818337600083830152505050565b60005b8381101561337e578082015181840152602081019050613363565b8381111561338d576000848401525b50505050565b600060028204905060018216806133ab57607f821691505b602082108114156133bf576133be613425565b5b50919050565b6133ce82613483565b810181811067ffffffffffffffff821117156133ed576133ec613454565b5b80604052505050565b7f4e487b7100000000000000000000000000000000000000000000000000000000600052601160045260246000fd5b7f4e487b7100000000000000000000000000000000000000000000000000000000600052602260045260246000fd5b7f4e487b7100000000000000000000000000000000000000000000000000000000600052604160045260246000fd5b6000601f19601f8301169050919050565b7f4552433732313a2063616c6c6572206973206e6f7420746f6b656e206f776e6560008201527f72206f7220617070726f76656400000000000000000000000000000000000000602082015250565b7f4552433732313a207472616e7366657220746f206e6f6e20455243373231526560008201527f63656976657220696d706c656d656e7465720000000000000000000000000000602082015250565b7f4f776e61626c653a206e6577206f776e657220697320746865207a65726f206160008201527f6464726573730000000000000000000000000000000000000000000000000000602082015250565b7f4552433732313a207472616e736665722066726f6d20696e636f72726563742060008201527f6f776e6572000000000000000000000000000000000000000000000000000000602082015250565b7f4552433732313a20746f6b656e20616c7265616479206d696e74656400000000600082015250565b7f4552433732313a207472616e7366657220746f20746865207a65726f2061646460008201527f7265737300000000000000000000000000000000000000000000000000000000602082015250565b7f4552433732313a20617070726f766520746f2063616c6c657200000000000000600082015250565b7f4552433732313a2061646472657373207a65726f206973206e6f74206120766160008201527f6c6964206f776e65720000000000000000000000000000000000000000000000602082015250565b7f4d6178206d696e746564206279206f776e657220726561636865640000000000600082015250565b7f4552433732313a206d696e7420746f20746865207a65726f2061646472657373600082015250565b7f4e6f7420616c6c6f77656420746f206d696e7400000000000000000000000000600082015250565b7f4f776e61626c653a2063616c6c6572206973206e6f7420746865206f776e6572600082015250565b7f4552433732313a20696e76616c696420746f6b656e2049440000000000000000600082015250565b7f4552433732313a20617070726f76616c20746f2063757272656e74206f776e6560008201527f7200000000000000000000000000000000000000000000000000000000000000602082015250565b7f4d696e74696e672069732063757272656e746c79207061757365640000000000600082015250565b7f43616c6c6572206973206e6f74206f776e6572206e6f7220617070726f766564600082015250565b7f4552433732313a20617070726f76652063616c6c6572206973206e6f7420746f60008201527f6b656e206f776e6572206f7220617070726f76656420666f7220616c6c000000602082015250565b7f4d617820737570706c7920726561636865640000000000000000000000000000600082015250565b7f5769746864726177616c206661696c6564000000000000000000000000000000600082015250565b6138d8816132b9565b81146138e357600080fd5b50565b6138ef816132cb565b81146138fa57600080fd5b50565b613906816132d7565b811461391157600080fd5b50565b61391d81613323565b811461392857600080fd5b5056fea264697066735822122036336da5e06cd8a0a654c016a18436c49e49b3468423b1ebb0c47830c86eb18664736f6c63430008010033",
  "linkReferences": {},
  "deployedLinkReferences": {}
}