{
  "_format": "hh-sol-artifact-1",
  "contractName": "AuctionHouse",
  "sourceName": "contracts/AuctionHouse.sol",
  "abi": [
    {
      "inputs": [
        {
          "internalType": "address",
          "name": "erc721Address",
          "type": "address"
        }
      ],
      "stateMutability": "nonpayable",
      "type": "constructor"
    },
    {
      "anonymous": false,
      "inputs": [
        {
          "indexed": true,
          "internalType": "uint256",
          "name": "auctionId",
          "type": "uint256"
        },
        {
          "indexed": false,
          "internalType": "uint256",
          "name": "tokenId",
          "type": "uint256"
        }
      ],
      "name": "AuctionCreated",
      "type": "event"
    },
    {
      "anonymous": false,
      "inputs": [
        {
          "indexed": true,
          "internalType": "uint256",
          "name": "auctionId",
          "type": "uint256"
        },
        {
          "indexed": true,
          "internalType": "address",
          "name": "winner",
          "type": "address"
        },
        {
          "indexed": false,
          "internalType": "uint256",
          "name": "amount",
          "type": "uint256"
        }
      ],
      "name": "AuctionEnded",
      "type": "event"
    },
    {
      "anonymous": false,
      "inputs": [
        {
          "indexed": true,
          "internalType": "uint256",
          "name": "auctionId",
          "type": "uint256"
        },
        {
          "indexed": true,
          "internalType": "address",
          "name": "bidder",
          "type": "address"
        },
        {
          "indexed": false,
          "internalType": "uint256",
          "name": "amount",
          "type": "uint256"
        }
      ],
      "name": "BidPlaced",
      "type": "event"
    },
    {
      "anonymous": false,
      "inputs": [
        {
          "indexed": true,
          "internalType": "address",
          "name": "previousOwner",
          "type": "address"
        },
        {
          "indexed": true,
          "internalType": "address",
          "name": "newOwner",
          "type": "address"
        }
      ],
      "name": "OwnershipTransferred",
      "type": "event"
    },
    {
      "inputs": [],
      "name": "auctionCounter",
      "outputs": [
        {
          "internalType": "uint256",
          "name": "",
          "type": "uint256"
        }
      ],
      "stateMutability": "view",
      "type": "function"
    },
    {
      "inputs": [],
      "name": "auctionDuration",
      "outputs": [
        {
          "internalType": "uint256",
          "name": "",
          "type": "uint256"
        }
      ],
      "stateMutability": "view",
      "type": "function"
    },
    {
      "inputs": [
        {
          "internalType": "uint256",
          "name": "",
          "type": "uint256"
        }
      ],
      "name": "auctions",
      "outputs": [
        {
          "internalType": "address",
          "name": "tokenAddress",
          "type": "address"
        },
        {
          "internalType": "uint256",
          "name": "tokenId",
          "type": "uint256"
        },
        {
          "internalType": "address payable",
          "name": "seller",
          "type": "address"
        },
        {
          "internalType": "uint256",
          "name": "endTime",
          "type": "uint256"
        },
        {
          "internalType": "address payable",
          "name": "highestBidder",
          "type": "address"
        },
        {
          "internalType": "uint256",
          "name": "highestBid",
          "type": "uint256"
        },
        {
          "internalType": "bool",
          "name": "hasReceivedBids",
          "type": "bool"
        },
        {
          "internalType": "bool",
          "name": "ended",
          "type": "bool"
        }
      ],
      "stateMutability": "view",
      "type": "function"
    },
    {
      "inputs": [
        {
          "internalType": "uint256",
          "name": "_auctionDuration",
          "type": "uint256"
        }
      ],
      "name": "changeAuctionDuration",
      "outputs": [],
      "stateMutability": "nonpayable",
      "type": "function"
    },
    {
      "inputs": [],
      "name": "createAuction",
      "outputs": [],
      "stateMutability": "nonpayable",
      "type": "function"
    },
    {
      "inputs": [],
      "name": "defaultStartingPrice",
      "outputs": [
        {
          "internalType": "uint256",
          "name": "",
          "type": "uint256"
        }
      ],
      "stateMutability": "view",
      "type": "function"
    },
    {
      "inputs": [],
      "name": "erc721",
      "outputs": [
        {
          "internalType": "contract PeakyBirds",
          "name": "",
          "type": "address"
        }
      ],
      "stateMutability": "view",
      "type": "function"
    },
    {
      "inputs": [
        {
          "internalType": "uint256",
          "name": "auctionId",
          "type": "uint256"
        }
      ],
      "name": "forceEndAuction",
      "outputs": [],
      "stateMutability": "nonpayable",
      "type": "function"
    },
    {
      "inputs": [
        {
          "internalType": "uint256",
          "name": "auctionId",
          "type": "uint256"
        }
      ],
      "name": "getTokenInfo",
      "outputs": [
        {
          "internalType": "string",
          "name": "tokenURI",
          "type": "string"
        },
        {
          "internalType": "uint256",
          "name": "tokenId",
          "type": "uint256"
        }
      ],
      "stateMutability": "view",
      "type": "function"
    },
    {
      "inputs": [
        {
          "internalType": "address",
          "name": "",
          "type": "address"
        },
        {
          "internalType": "address",
          "name": "",
          "type": "address"
        },
        {
          "internalType": "uint256",
          "name": "",
          "type": "uint256"
        },
        {
          "internalType": "bytes",
          "name": "",
          "type": "bytes"
        }
      ],
      "name": "onERC721Received",
      "outputs": [
        {
          "internalType": "bytes4",
          "name": "",
          "type": "bytes4"
        }
      ],
      "stateMutability": "nonpayable",
      "type": "function"
    },
    {
      "inputs": [],
      "name": "owner",
      "outputs": [
        {
          "internalType": "address",
          "name": "",
          "type": "address"
        }
      ],
      "stateMutability": "view",
      "type": "function"
    },
    {
      "inputs": [
        {
          "internalType": "uint256",
          "name": "auctionId",
          "type": "uint256"
        }
      ],
      "name": "placeBid",
      "outputs": [],
      "stateMutability": "payable",
      "type": "function"
    },
    {
      "inputs": [],
      "name": "renounceOwnership",
      "outputs": [],
      "stateMutability": "nonpayable",
      "type": "function"
    },
    {
      "inputs": [
        {
          "internalType": "uint256",
          "name": "newDefaultStartingPrice",
          "type": "uint256"
        }
      ],
      "name": "setDefaultStartingPrice",
      "outputs": [],
      "stateMutability": "nonpayable",
      "type": "function"
    },
    {
      "inputs": [
        {
          "internalType": "address",
          "name": "newOwner",
          "type": "address"
        }
      ],
      "name": "transferOwnership",
      "outputs": [],
      "stateMutability": "nonpayable",
      "type": "function"
    },
    {
      "inputs": [],
      "name": "withdraw",
      "outputs": [],
      "stateMutability": "nonpayable",
      "type": "function"
    }
  ],
  "bytecode": "0x608060405261fd206002553480156200001757600080fd5b5060405162001f1338038062001f1383398181016040528101906200003d9190620001ad565b6200005d62000051620000ca60201b60201c565b620000d260201b60201c565b6001808190555080600660006101000a81548173ffffffffffffffffffffffffffffffffffffffff021916908373ffffffffffffffffffffffffffffffffffffffff16021790555042600381905550600060048190555067016345785d8a00006007819055505062000227565b600033905090565b60008060009054906101000a900473ffffffffffffffffffffffffffffffffffffffff169050816000806101000a81548173ffffffffffffffffffffffffffffffffffffffff021916908373ffffffffffffffffffffffffffffffffffffffff1602179055508173ffffffffffffffffffffffffffffffffffffffff168173ffffffffffffffffffffffffffffffffffffffff167f8be0079c531659141344cd1fd0a4f28419497f9722a3daafe3b4186f6b6457e060405160405180910390a35050565b600081519050620001a7816200020d565b92915050565b600060208284031215620001c057600080fd5b6000620001d08482850162000196565b91505092915050565b6000620001e682620001ed565b9050919050565b600073ffffffffffffffffffffffffffffffffffffffff82169050919050565b6200021881620001d9565b81146200022457600080fd5b50565b611cdc80620002376000396000f3fe6080604052600436106100f35760003560e01c80638c7a63ae1161008a578063bca6ce6411610059578063bca6ce64146102ff578063c973c3591461032a578063f2fde38b14610353578063f58114471461037c576100f3565b80638c7a63ae1461024f5780638da5cb5b1461028d5780639979ef45146102b8578063a7e76644146102d4576100f3565b80633ccfd60b116100c65780633ccfd60b146101b4578063571a26a0146101cb57806358aaa6c41461020f578063715018a614610238576100f3565b806301c67b17146100f85780630cbf54c81461012157806313af1b161461014c578063150b7a0214610177575b600080fd5b34801561010457600080fd5b5061011f600480360381019061011a91906113f9565b610393565b005b34801561012d57600080fd5b506101366103a5565b604051610143919061184b565b60405180910390f35b34801561015857600080fd5b506101616103ab565b60405161016e919061184b565b60405180910390f35b34801561018357600080fd5b5061019e6004803603810190610199919061133d565b6103b1565b6040516101ab91906116ea565b60405180910390f35b3480156101c057600080fd5b506101c96103c5565b005b3480156101d757600080fd5b506101f260048036038101906101ed91906113f9565b610416565b60405161020698979695949392919061166c565b60405180910390f35b34801561021b57600080fd5b50610236600480360381019061023191906113f9565b6104d8565b005b34801561024457600080fd5b5061024d6104ea565b005b34801561025b57600080fd5b50610276600480360381019061027191906113f9565b6104fe565b60405161028492919061173b565b60405180910390f35b34801561029957600080fd5b506102a26105d2565b6040516102af91906115f1565b60405180910390f35b6102d260048036038101906102cd91906113f9565b6105fb565b005b3480156102e057600080fd5b506102e9610857565b6040516102f6919061184b565b60405180910390f35b34801561030b57600080fd5b5061031461085d565b6040516103219190611705565b60405180910390f35b34801561033657600080fd5b50610351600480360381019061034c91906113f9565b610883565b005b34801561035f57600080fd5b5061037a60048036038101906103759190611314565b610bdb565b005b34801561038857600080fd5b50610391610c5f565b005b61039b61104c565b8060078190555050565b60025481565b60075481565b600063150b7a0260e01b9050949350505050565b6103cd61104c565b3373ffffffffffffffffffffffffffffffffffffffff166108fc479081150290604051600060405180830381858888f19350505050158015610413573d6000803e3d6000fd5b50565b60056020528060005260406000206000915090508060000160009054906101000a900473ffffffffffffffffffffffffffffffffffffffff16908060010154908060020160009054906101000a900473ffffffffffffffffffffffffffffffffffffffff16908060030154908060040160009054906101000a900473ffffffffffffffffffffffffffffffffffffffff16908060050154908060060160009054906101000a900460ff16908060060160019054906101000a900460ff16905088565b6104e061104c565b8060028190555050565b6104f261104c565b6104fc60006110ca565b565b6060600060056000848152602001908152602001600020600101549050600660009054906101000a900473ffffffffffffffffffffffffffffffffffffffff1673ffffffffffffffffffffffffffffffffffffffff1663c87b56dd826040518263ffffffff1660e01b8152600401610576919061184b565b60006040518083038186803b15801561058e57600080fd5b505afa1580156105a2573d6000803e3d6000fd5b505050506040513d6000823e3d601f19601f820116820180604052508101906105cb91906113b8565b9150915091565b60008060009054906101000a900473ffffffffffffffffffffffffffffffffffffffff16905090565b61060361118e565b60006005600083815260200190815260200160002090508060030154421115610661576040517f08c379a0000000000000000000000000000000000000000000000000000000008152600401610658906117cb565b60405180910390fd5b80600501543411801561068c575061068860075482600501546111de90919063ffffffff16565b3410155b6106cb576040517f08c379a00000000000000000000000000000000000000000000000000000000081526004016106c2906117ab565b60405180910390fd5b600073ffffffffffffffffffffffffffffffffffffffff168160040160009054906101000a900473ffffffffffffffffffffffffffffffffffffffff1673ffffffffffffffffffffffffffffffffffffffff1614610793578060040160009054906101000a900473ffffffffffffffffffffffffffffffffffffffff1673ffffffffffffffffffffffffffffffffffffffff166108fc82600501549081150290604051600060405180830381858888f19350505050158015610791573d6000803e3d6000fd5b505b338160040160006101000a81548173ffffffffffffffffffffffffffffffffffffffff021916908373ffffffffffffffffffffffffffffffffffffffff16021790555034816005018190555060018160060160006101000a81548160ff0219169083151502179055503373ffffffffffffffffffffffffffffffffffffffff16827f0e54eff26401bf69b81b26f60bd85ef47f5d85275c1d268d84f68d6897431c4734604051610843919061184b565b60405180910390a3506108546111f4565b50565b60045481565b600660009054906101000a900473ffffffffffffffffffffffffffffffffffffffff1681565b61088b61104c565b60006005600083815260200190815260200160002090508060060160019054906101000a900460ff16156108f4576040517f08c379a00000000000000000000000000000000000000000000000000000000081526004016108eb9061178b565b60405180910390fd5b60018160060160016101000a81548160ff0219169083151502179055508060060160009054906101000a900460ff1615610acc578060040160009054906101000a900473ffffffffffffffffffffffffffffffffffffffff1673ffffffffffffffffffffffffffffffffffffffff166108fc82600501549081150290604051600060405180830381858888f19350505050158015610996573d6000803e3d6000fd5b50600660009054906101000a900473ffffffffffffffffffffffffffffffffffffffff1673ffffffffffffffffffffffffffffffffffffffff166323b872dd308360040160009054906101000a900473ffffffffffffffffffffffffffffffffffffffff1684600101546040518463ffffffff1660e01b8152600401610a1e9392919061160c565b600060405180830381600087803b158015610a3857600080fd5b505af1158015610a4c573d6000803e3d6000fd5b505050508060040160009054906101000a900473ffffffffffffffffffffffffffffffffffffffff1673ffffffffffffffffffffffffffffffffffffffff16827fd2aa34a4fdbbc6dff6a3e56f46e0f3ae2a31d7785ff3487aa5c95c642acea5018360050154604051610abf919061184b565b60405180910390a3610bd7565b600660009054906101000a900473ffffffffffffffffffffffffffffffffffffffff1673ffffffffffffffffffffffffffffffffffffffff166323b872dd308360020160009054906101000a900473ffffffffffffffffffffffffffffffffffffffff1684600101546040518463ffffffff1660e01b8152600401610b539392919061160c565b600060405180830381600087803b158015610b6d57600080fd5b505af1158015610b81573d6000803e3d6000fd5b50505050600073ffffffffffffffffffffffffffffffffffffffff16827fd2aa34a4fdbbc6dff6a3e56f46e0f3ae2a31d7785ff3487aa5c95c642acea5016000604051610bce9190611720565b60405180910390a35b5050565b610be361104c565b600073ffffffffffffffffffffffffffffffffffffffff168173ffffffffffffffffffffffffffffffffffffffff161415610c53576040517f08c379a0000000000000000000000000000000000000000000000000000000008152600401610c4a9061176b565b60405180910390fd5b610c5c816110ca565b50565b600354421015610ca4576040517f08c379a0000000000000000000000000000000000000000000000000000000008152600401610c9b9061182b565b60405180910390fd5b60006001600660009054906101000a900473ffffffffffffffffffffffffffffffffffffffff1673ffffffffffffffffffffffffffffffffffffffff1663771282f66040518163ffffffff1660e01b815260040160206040518083038186803b158015610d1057600080fd5b505afa158015610d24573d6000803e3d6000fd5b505050506040513d601f19601f82011682018060405250810190610d489190611422565b610d529190611909565b9050600660009054906101000a900473ffffffffffffffffffffffffffffffffffffffff1673ffffffffffffffffffffffffffffffffffffffff1663a144819430836040518363ffffffff1660e01b8152600401610db1929190611643565b600060405180830381600087803b158015610dcb57600080fd5b505af1158015610ddf573d6000803e3d6000fd5b5050505060006004549050604051806101000160405280600660009054906101000a900473ffffffffffffffffffffffffffffffffffffffff1673ffffffffffffffffffffffffffffffffffffffff1681526020018381526020013373ffffffffffffffffffffffffffffffffffffffff16815260200160025442610e649190611909565b8152602001600073ffffffffffffffffffffffffffffffffffffffff1681526020016007548152602001600015158152602001600015158152506005600083815260200190815260200160002060008201518160000160006101000a81548173ffffffffffffffffffffffffffffffffffffffff021916908373ffffffffffffffffffffffffffffffffffffffff1602179055506020820151816001015560408201518160020160006101000a81548173ffffffffffffffffffffffffffffffffffffffff021916908373ffffffffffffffffffffffffffffffffffffffff1602179055506060820151816003015560808201518160040160006101000a81548173ffffffffffffffffffffffffffffffffffffffff021916908373ffffffffffffffffffffffffffffffffffffffff16021790555060a0820151816005015560c08201518160060160006101000a81548160ff02191690831515021790555060e08201518160060160016101000a81548160ff0219169083151502179055509050506001600454610ff69190611909565b6004819055506002544261100a9190611909565b600381905550807fe00a2da3a0f34a566402a244ab7ec63f8ab7472591cb18edf3269aa00461a41083604051611040919061184b565b60405180910390a25050565b6110546111fd565b73ffffffffffffffffffffffffffffffffffffffff166110726105d2565b73ffffffffffffffffffffffffffffffffffffffff16146110c8576040517f08c379a00000000000000000000000000000000000000000000000000000000081526004016110bf906117eb565b60405180910390fd5b565b60008060009054906101000a900473ffffffffffffffffffffffffffffffffffffffff169050816000806101000a81548173ffffffffffffffffffffffffffffffffffffffff021916908373ffffffffffffffffffffffffffffffffffffffff1602179055508173ffffffffffffffffffffffffffffffffffffffff168173ffffffffffffffffffffffffffffffffffffffff167f8be0079c531659141344cd1fd0a4f28419497f9722a3daafe3b4186f6b6457e060405160405180910390a35050565b600260015414156111d4576040517f08c379a00000000000000000000000000000000000000000000000000000000081526004016111cb9061180b565b60405180910390fd5b6002600181905550565b600081836111ec9190611909565b905092915050565b60018081905550565b600033905090565b60006112186112138461188b565b611866565b90508281526020810184848401111561123057600080fd5b61123b848285611a51565b509392505050565b6000611256611251846118bc565b611866565b90508281526020810184848401111561126e57600080fd5b611279848285611a60565b509392505050565b60008135905061129081611c78565b92915050565b600082601f8301126112a757600080fd5b81356112b7848260208601611205565b91505092915050565b600082601f8301126112d157600080fd5b81516112e1848260208601611243565b91505092915050565b6000813590506112f981611c8f565b92915050565b60008151905061130e81611c8f565b92915050565b60006020828403121561132657600080fd5b600061133484828501611281565b91505092915050565b6000806000806080858703121561135357600080fd5b600061136187828801611281565b945050602061137287828801611281565b9350506040611383878288016112ea565b925050606085013567ffffffffffffffff8111156113a057600080fd5b6113ac87828801611296565b91505092959194509250565b6000602082840312156113ca57600080fd5b600082015167ffffffffffffffff8111156113e457600080fd5b6113f0848285016112c0565b91505092915050565b60006020828403121561140b57600080fd5b6000611419848285016112ea565b91505092915050565b60006020828403121561143457600080fd5b6000611442848285016112ff565b91505092915050565b611454816119e5565b82525050565b61146381611971565b82525050565b6114728161195f565b82525050565b61148181611983565b82525050565b6114908161198f565b82525050565b61149f816119f7565b82525050565b6114ae81611a1b565b82525050565b60006114bf826118ed565b6114c981856118f8565b93506114d9818560208601611a60565b6114e281611b22565b840191505092915050565b60006114fa6026836118f8565b915061150582611b33565b604082019050919050565b600061151d6015836118f8565b915061152882611b82565b602082019050919050565b60006115406013836118f8565b915061154b82611bab565b602082019050919050565b60006115636011836118f8565b915061156e82611bd4565b602082019050919050565b60006115866020836118f8565b915061159182611bfd565b602082019050919050565b60006115a9601f836118f8565b91506115b482611c26565b602082019050919050565b60006115cc6017836118f8565b91506115d782611c4f565b602082019050919050565b6115eb816119db565b82525050565b60006020820190506116066000830184611469565b92915050565b60006060820190506116216000830186611469565b61162e602083018561144b565b61163b60408301846115e2565b949350505050565b60006040820190506116586000830185611469565b61166560208301846115e2565b9392505050565b600061010082019050611682600083018b611469565b61168f602083018a6115e2565b61169c604083018961145a565b6116a960608301886115e2565b6116b6608083018761145a565b6116c360a08301866115e2565b6116d060c0830185611478565b6116dd60e0830184611478565b9998505050505050505050565b60006020820190506116ff6000830184611487565b92915050565b600060208201905061171a6000830184611496565b92915050565b600060208201905061173560008301846114a5565b92915050565b6000604082019050818103600083015261175581856114b4565b905061176460208301846115e2565b9392505050565b60006020820190508181036000830152611784816114ed565b9050919050565b600060208201905081810360008301526117a481611510565b9050919050565b600060208201905081810360008301526117c481611533565b9050919050565b600060208201905081810360008301526117e481611556565b9050919050565b6000602082019050818103600083015261180481611579565b9050919050565b600060208201905081810360008301526118248161159c565b9050919050565b60006020820190508181036000830152611844816115bf565b9050919050565b600060208201905061186060008301846115e2565b92915050565b6000611870611881565b905061187c8282611a93565b919050565b6000604051905090565b600067ffffffffffffffff8211156118a6576118a5611af3565b5b6118af82611b22565b9050602081019050919050565b600067ffffffffffffffff8211156118d7576118d6611af3565b5b6118e082611b22565b9050602081019050919050565b600081519050919050565b600082825260208201905092915050565b6000611914826119db565b915061191f836119db565b9250827fffffffffffffffffffffffffffffffffffffffffffffffffffffffffffffffff0382111561195457611953611ac4565b5b828201905092915050565b600061196a826119bb565b9050919050565b600061197c826119bb565b9050919050565b60008115159050919050565b60007fffffffff0000000000000000000000000000000000000000000000000000000082169050919050565b600073ffffffffffffffffffffffffffffffffffffffff82169050919050565b6000819050919050565b60006119f082611a2d565b9050919050565b6000611a0282611a09565b9050919050565b6000611a14826119bb565b9050919050565b6000611a26826119db565b9050919050565b6000611a3882611a3f565b9050919050565b6000611a4a826119bb565b9050919050565b82818337600083830152505050565b60005b83811015611a7e578082015181840152602081019050611a63565b83811115611a8d576000848401525b50505050565b611a9c82611b22565b810181811067ffffffffffffffff82111715611abb57611aba611af3565b5b80604052505050565b7f4e487b7100000000000000000000000000000000000000000000000000000000600052601160045260246000fd5b7f4e487b7100000000000000000000000000000000000000000000000000000000600052604160045260246000fd5b6000601f19601f8301169050919050565b7f4f776e61626c653a206e6577206f776e657220697320746865207a65726f206160008201527f6464726573730000000000000000000000000000000000000000000000000000602082015250565b7f41756374696f6e20616c726561647920656e6465640000000000000000000000600082015250565b7f426964206e6f74206869676820656e6f75676800000000000000000000000000600082015250565b7f41756374696f6e2068617320656e646564000000000000000000000000000000600082015250565b7f4f776e61626c653a2063616c6c6572206973206e6f7420746865206f776e6572600082015250565b7f5265656e7472616e637947756172643a207265656e7472616e742063616c6c00600082015250565b7f41756374696f6e206e6f7420616c6c6f77656420796574000000000000000000600082015250565b611c818161195f565b8114611c8c57600080fd5b50565b611c98816119db565b8114611ca357600080fd5b5056fea2646970667358221220fe3c91f58b6f17e7b2a561fedce3f1364e35f0ad0dcf86154d603a49ab650cad64736f6c63430008010033",
  "linkReferences": {},
  "deployedLinkReferences": {}
}