{
  "_format": "hh-sol-artifact-1",
  "contractName": "ERC721Authority",
  "sourceName": "contracts/ERC721Authority.sol",
  "abi": [
    {
      "anonymous": false,
      "inputs": [
        {
          "indexed": true,
          "internalType": "address",
          "name": "previousOwner",
          "type": "address"
        },
        {
          "indexed": true,
          "internalType": "address",
          "name": "newOwner",
          "type": "address"
        }
      ],
      "name": "OwnershipTransferred",
      "type": "event"
    },
    {
      "inputs": [
        {
          "internalType": "address",
          "name": "account",
          "type": "address"
        }
      ],
      "name": "addToWhitelist",
      "outputs": [],
      "stateMutability": "nonpayable",
      "type": "function"
    },
    {
      "inputs": [
        {
          "internalType": "address",
          "name": "account",
          "type": "address"
        }
      ],
      "name": "isWhitelisted",
      "outputs": [
        {
          "internalType": "bool",
          "name": "",
          "type": "bool"
        }
      ],
      "stateMutability": "view",
      "type": "function"
    },
    {
      "inputs": [],
      "name": "owner",
      "outputs": [
        {
          "internalType": "address",
          "name": "",
          "type": "address"
        }
      ],
      "stateMutability": "view",
      "type": "function"
    },
    {
      "inputs": [
        {
          "internalType": "address",
          "name": "account",
          "type": "address"
        }
      ],
      "name": "removeFromWhitelist",
      "outputs": [],
      "stateMutability": "nonpayable",
      "type": "function"
    },
    {
      "inputs": [],
      "name": "renounceOwnership",
      "outputs": [],
      "stateMutability": "nonpayable",
      "type": "function"
    },
    {
      "inputs": [
        {
          "internalType": "address",
          "name": "newOwner",
          "type": "address"
        }
      ],
      "name": "transferOwnership",
      "outputs": [],
      "stateMutability": "nonpayable",
      "type": "function"
    }
  ],
  "bytecode": "0x608060405234801561001057600080fd5b5061002d61002261003260201b60201c565b61003a60201b60201c565b6100fe565b600033905090565b60008060009054906101000a900473ffffffffffffffffffffffffffffffffffffffff169050816000806101000a81548173ffffffffffffffffffffffffffffffffffffffff021916908373ffffffffffffffffffffffffffffffffffffffff1602179055508173ffffffffffffffffffffffffffffffffffffffff168173ffffffffffffffffffffffffffffffffffffffff167f8be0079c531659141344cd1fd0a4f28419497f9722a3daafe3b4186f6b6457e060405160405180910390a35050565b6106658061010d6000396000f3fe608060405234801561001057600080fd5b50600436106100625760003560e01c80633af32abf14610067578063715018a6146100975780638ab1d681146100a15780638da5cb5b146100bd578063e43252d7146100db578063f2fde38b146100f7575b600080fd5b610081600480360381019061007c919061044e565b610113565b60405161008e91906104f6565b60405180910390f35b61009f610169565b005b6100bb60048036038101906100b6919061044e565b61017d565b005b6100c56101e0565b6040516100d291906104db565b60405180910390f35b6100f560048036038101906100f0919061044e565b610209565b005b610111600480360381019061010c919061044e565b61026b565b005b6000600160008373ffffffffffffffffffffffffffffffffffffffff1673ffffffffffffffffffffffffffffffffffffffff16815260200190815260200160002060009054906101000a900460ff169050919050565b6101716102ef565b61017b600061036d565b565b6101856102ef565b6000600160008373ffffffffffffffffffffffffffffffffffffffff1673ffffffffffffffffffffffffffffffffffffffff16815260200190815260200160002060006101000a81548160ff02191690831515021790555050565b60008060009054906101000a900473ffffffffffffffffffffffffffffffffffffffff16905090565b6102116102ef565b60018060008373ffffffffffffffffffffffffffffffffffffffff1673ffffffffffffffffffffffffffffffffffffffff16815260200190815260200160002060006101000a81548160ff02191690831515021790555050565b6102736102ef565b600073ffffffffffffffffffffffffffffffffffffffff168173ffffffffffffffffffffffffffffffffffffffff1614156102e3576040517f08c379a00000000000000000000000000000000000000000000000000000000081526004016102da90610511565b60405180910390fd5b6102ec8161036d565b50565b6102f7610431565b73ffffffffffffffffffffffffffffffffffffffff166103156101e0565b73ffffffffffffffffffffffffffffffffffffffff161461036b576040517f08c379a000000000000000000000000000000000000000000000000000000000815260040161036290610531565b60405180910390fd5b565b60008060009054906101000a900473ffffffffffffffffffffffffffffffffffffffff169050816000806101000a81548173ffffffffffffffffffffffffffffffffffffffff021916908373ffffffffffffffffffffffffffffffffffffffff1602179055508173ffffffffffffffffffffffffffffffffffffffff168173ffffffffffffffffffffffffffffffffffffffff167f8be0079c531659141344cd1fd0a4f28419497f9722a3daafe3b4186f6b6457e060405160405180910390a35050565b600033905090565b60008135905061044881610618565b92915050565b60006020828403121561046057600080fd5b600061046e84828501610439565b91505092915050565b61048081610562565b82525050565b61048f81610574565b82525050565b60006104a2602683610551565b91506104ad826105a0565b604082019050919050565b60006104c5602083610551565b91506104d0826105ef565b602082019050919050565b60006020820190506104f06000830184610477565b92915050565b600060208201905061050b6000830184610486565b92915050565b6000602082019050818103600083015261052a81610495565b9050919050565b6000602082019050818103600083015261054a816104b8565b9050919050565b600082825260208201905092915050565b600061056d82610580565b9050919050565b60008115159050919050565b600073ffffffffffffffffffffffffffffffffffffffff82169050919050565b7f4f776e61626c653a206e6577206f776e657220697320746865207a65726f206160008201527f6464726573730000000000000000000000000000000000000000000000000000602082015250565b7f4f776e61626c653a2063616c6c6572206973206e6f7420746865206f776e6572600082015250565b61062181610562565b811461062c57600080fd5b5056fea26469706673582212202c1ddd975508c0cf0d24f86aa39986f7d11651f241dc1ae3ee76a52e79ccc36564736f6c63430008010033",
  "linkReferences": {},
  "deployedLinkReferences": {}
}